{
  "_format": "hh-sol-artifact-1",
  "contractName": "Portfolio",
  "sourceName": "contracts/Portfolio.sol",
  "abi": [
    {
      "inputs": [],
      "stateMutability": "nonpayable",
      "type": "constructor"
    },
    {
      "inputs": [],
      "name": "allEductationDetails",
      "outputs": [
        {
          "components": [
            {
              "internalType": "uint256",
              "name": "id",
              "type": "uint256"
            },
            {
              "internalType": "string",
              "name": "date",
              "type": "string"
            },
            {
              "internalType": "string",
              "name": "degree",
              "type": "string"
            },
            {
              "internalType": "string",
              "name": "knowledgeAcquired",
              "type": "string"
            },
            {
              "internalType": "string",
              "name": "instutionName",
              "type": "string"
            }
          ],
          "internalType": "struct Portfolio.Education[3]",
          "name": "",
          "type": "tuple[3]"
        }
      ],
      "stateMutability": "view",
      "type": "function"
    },
    {
      "inputs": [],
      "name": "allExperienceDetails",
      "outputs": [
        {
          "components": [
            {
              "internalType": "uint256",
              "name": "id",
              "type": "uint256"
            },
            {
              "internalType": "string",
              "name": "date",
              "type": "string"
            },
            {
              "internalType": "string",
              "name": "post",
              "type": "string"
            },
            {
              "internalType": "string",
              "name": "knowledgeAcquired",
              "type": "string"
            },
            {
              "internalType": "string",
              "name": "compamyName",
              "type": "string"
            }
          ],
          "internalType": "struct Portfolio.Experience[3]",
          "name": "",
          "type": "tuple[3]"
        }
      ],
      "stateMutability": "view",
      "type": "function"
    },
    {
      "inputs": [],
      "name": "allProjects",
      "outputs": [
        {
          "components": [
            {
              "internalType": "uint256",
              "name": "id",
              "type": "uint256"
            },
            {
              "internalType": "string",
              "name": "name",
              "type": "string"
            },
            {
              "internalType": "string",
              "name": "description",
              "type": "string"
            },
            {
              "internalType": "string",
              "name": "image",
              "type": "string"
            },
            {
              "internalType": "string",
              "name": "githubLink",
              "type": "string"
            }
          ],
          "internalType": "struct Portfolio.Project[3]",
          "name": "",
          "type": "tuple[3]"
        }
      ],
      "stateMutability": "view",
      "type": "function"
    },
    {
      "inputs": [
        {
          "internalType": "string",
          "name": "_description",
          "type": "string"
        }
      ],
      "name": "changeDescription",
      "outputs": [],
      "stateMutability": "nonpayable",
      "type": "function"
    },
    {
      "inputs": [
        {
          "internalType": "string",
          "name": "_date",
          "type": "string"
        },
        {
          "internalType": "string",
          "name": "_degree",
          "type": "string"
        },
        {
          "internalType": "string",
          "name": "_knowledgeAcquired",
          "type": "string"
        },
        {
          "internalType": "string",
          "name": "_instutionName",
          "type": "string"
        },
        {
          "internalType": "uint256",
          "name": "_educationDetailCount",
          "type": "uint256"
        }
      ],
      "name": "changeEducation",
      "outputs": [],
      "stateMutability": "nonpayable",
      "type": "function"
    },
    {
      "inputs": [
        {
          "internalType": "string",
          "name": "_date",
          "type": "string"
        },
        {
          "internalType": "string",
          "name": "_post",
          "type": "string"
        },
        {
          "internalType": "string",
          "name": "_knowledgeAcquired",
          "type": "string"
        },
        {
          "internalType": "string",
          "name": "_companyName",
          "type": "string"
        },
        {
          "internalType": "uint256",
          "name": "_experienceDetailCount",
          "type": "uint256"
        }
      ],
      "name": "changeExperience",
      "outputs": [],
      "stateMutability": "nonpayable",
      "type": "function"
    },
    {
      "inputs": [
        {
          "internalType": "string",
          "name": "_imageLink",
          "type": "string"
        }
      ],
      "name": "changeImageLink",
      "outputs": [],
      "stateMutability": "nonpayable",
      "type": "function"
    },
    {
      "inputs": [
        {
          "internalType": "string",
          "name": "_name",
          "type": "string"
        },
        {
          "internalType": "string",
          "name": "_description",
          "type": "string"
        },
        {
          "internalType": "string",
          "name": "_image",
          "type": "string"
        },
        {
          "internalType": "string",
          "name": "_githubLink",
          "type": "string"
        },
        {
          "internalType": "uint256",
          "name": "_projectCount",
          "type": "uint256"
        }
      ],
      "name": "changeProject",
      "outputs": [],
      "stateMutability": "nonpayable",
      "type": "function"
    },
    {
      "inputs": [
        {
          "internalType": "string",
          "name": "_resumeLink",
          "type": "string"
        }
      ],
      "name": "changeResumeLink",
      "outputs": [],
      "stateMutability": "nonpayable",
      "type": "function"
    },
    {
      "inputs": [],
      "name": "description",
      "outputs": [
        {
          "internalType": "string",
          "name": "",
          "type": "string"
        }
      ],
      "stateMutability": "view",
      "type": "function"
    },
    {
      "inputs": [],
      "name": "donate",
      "outputs": [],
      "stateMutability": "payable",
      "type": "function"
    },
    {
      "inputs": [
        {
          "internalType": "uint256",
          "name": "",
          "type": "uint256"
        }
      ],
      "name": "educationDetails",
      "outputs": [
        {
          "internalType": "uint256",
          "name": "id",
          "type": "uint256"
        },
        {
          "internalType": "string",
          "name": "date",
          "type": "string"
        },
        {
          "internalType": "string",
          "name": "degree",
          "type": "string"
        },
        {
          "internalType": "string",
          "name": "knowledgeAcquired",
          "type": "string"
        },
        {
          "internalType": "string",
          "name": "instutionName",
          "type": "string"
        }
      ],
      "stateMutability": "view",
      "type": "function"
    },
    {
      "inputs": [
        {
          "internalType": "uint256",
          "name": "",
          "type": "uint256"
        }
      ],
      "name": "experienceDetails",
      "outputs": [
        {
          "internalType": "uint256",
          "name": "id",
          "type": "uint256"
        },
        {
          "internalType": "string",
          "name": "date",
          "type": "string"
        },
        {
          "internalType": "string",
          "name": "post",
          "type": "string"
        },
        {
          "internalType": "string",
          "name": "knowledgeAcquired",
          "type": "string"
        },
        {
          "internalType": "string",
          "name": "compamyName",
          "type": "string"
        }
      ],
      "stateMutability": "view",
      "type": "function"
    },
    {
      "inputs": [],
      "name": "imageLink",
      "outputs": [
        {
          "internalType": "string",
          "name": "",
          "type": "string"
        }
      ],
      "stateMutability": "view",
      "type": "function"
    },
    {
      "inputs": [
        {
          "internalType": "string",
          "name": "_date",
          "type": "string"
        },
        {
          "internalType": "string",
          "name": "_degree",
          "type": "string"
        },
        {
          "internalType": "string",
          "name": "_knowledgeAcquired",
          "type": "string"
        },
        {
          "internalType": "string",
          "name": "_instutionName",
          "type": "string"
        }
      ],
      "name": "insertEducation",
      "outputs": [],
      "stateMutability": "nonpayable",
      "type": "function"
    },
    {
      "inputs": [
        {
          "internalType": "string",
          "name": "_date",
          "type": "string"
        },
        {
          "internalType": "string",
          "name": "_post",
          "type": "string"
        },
        {
          "internalType": "string",
          "name": "_knowledgeAcquired",
          "type": "string"
        },
        {
          "internalType": "string",
          "name": "_companyName",
          "type": "string"
        }
      ],
      "name": "insertExperience",
      "outputs": [],
      "stateMutability": "nonpayable",
      "type": "function"
    },
    {
      "inputs": [
        {
          "internalType": "string",
          "name": "_name",
          "type": "string"
        },
        {
          "internalType": "string",
          "name": "_description",
          "type": "string"
        },
        {
          "internalType": "string",
          "name": "_image",
          "type": "string"
        },
        {
          "internalType": "string",
          "name": "_githubLink",
          "type": "string"
        }
      ],
      "name": "insertProject",
      "outputs": [],
      "stateMutability": "nonpayable",
      "type": "function"
    },
    {
      "inputs": [],
      "name": "manager",
      "outputs": [
        {
          "internalType": "address",
          "name": "",
          "type": "address"
        }
      ],
      "stateMutability": "view",
      "type": "function"
    },
    {
      "inputs": [
        {
          "internalType": "uint256",
          "name": "",
          "type": "uint256"
        }
      ],
      "name": "projects",
      "outputs": [
        {
          "internalType": "uint256",
          "name": "id",
          "type": "uint256"
        },
        {
          "internalType": "string",
          "name": "name",
          "type": "string"
        },
        {
          "internalType": "string",
          "name": "description",
          "type": "string"
        },
        {
          "internalType": "string",
          "name": "image",
          "type": "string"
        },
        {
          "internalType": "string",
          "name": "githubLink",
          "type": "string"
        }
      ],
      "stateMutability": "view",
      "type": "function"
    },
    {
      "inputs": [],
      "name": "resumeLink",
      "outputs": [
        {
          "internalType": "string",
          "name": "",
          "type": "string"
        }
      ],
      "stateMutability": "view",
      "type": "function"
    }
  ],
  "bytecode": "0x60c0604052600c60809081526b105919081e5bdd5c8818da5960a21b60a052602d906200002d908262000158565b506040518060c00160405280608e815260200162002564608e9139602e9062000057908262000158565b5060408051808201909152600c81526b105919081e5bdd5c8818da5960a21b6020820152602f906200008a908262000158565b503480156200009857600080fd5b50603380546001600160a01b0319163317905562000224565b634e487b7160e01b600052604160045260246000fd5b600181811c90821680620000dc57607f821691505b602082108103620000fd57634e487b7160e01b600052602260045260246000fd5b50919050565b601f82111562000153576000816000526020600020601f850160051c810160208610156200012e5750805b601f850160051c820191505b818110156200014f578281556001016200013a565b5050505b505050565b81516001600160401b03811115620001745762000174620000b1565b6200018c81620001858454620000c7565b8462000103565b602080601f831160018114620001c45760008415620001ab5750858301515b600019600386901b1c1916600185901b1785556200014f565b600085815260208120601f198616915b82811015620001f557888601518255948401946001909101908401620001d4565b5085821015620002145787850151600019600388901b60f8161c191681555b5050505050600190811b01905550565b61233080620002346000396000f3fe60806040526004361061015f5760003560e01c80636fe8e0bd116100c0578063caf7b75911610074578063d921fa8211610059578063d921fa82146103aa578063e6120413146103ca578063ed88c68e146103ea57600080fd5b8063caf7b75914610375578063d3cedf111461038a57600080fd5b80637aea95aa116100a55780637aea95aa146103135780638af4f98d1461033357806398f831b61461035557600080fd5b80636fe8e0bd146102de5780637284e416146102fe57600080fd5b8063598e7f37116101175780635cea6a7c116100fc5780635cea6a7c1461027c5780635d85a1f41461029e5780636426d4c3146102be57600080fd5b8063598e7f371461023a5780635b173a691461025c57600080fd5b80632adf13b2116101485780632adf13b2146101be57806336eea422146101e0578063481c6a751461020257600080fd5b8063107046bd1461016457806310ef62c51461019e575b600080fd5b34801561017057600080fd5b5061018461017f366004611c65565b6103f2565b604051610195959493929190611cc4565b60405180910390f35b3480156101aa57600080fd5b506101846101b9366004611c65565b610648565b3480156101ca57600080fd5b506101d3610658565b6040516101959190611d98565b3480156101ec57600080fd5b506101f56108f5565b6040516101959190611de5565b34801561020e57600080fd5b50603354610222906001600160a01b031681565b6040516001600160a01b039091168152602001610195565b34801561024657600080fd5b5061025a610255366004611e6f565b610b8a565b005b34801561026857600080fd5b5061025a610277366004611eb1565b610bf5565b34801561028857600080fd5b50610291610e16565b6040516101959190611f7d565b3480156102aa57600080fd5b5061025a6102b9366004611f97565b610ea4565b3480156102ca57600080fd5b5061025a6102d9366004611f97565b6110e0565b3480156102ea57600080fd5b5061025a6102f9366004611eb1565b6112b9565b34801561030a57600080fd5b50610291611419565b34801561031f57600080fd5b5061018461032e366004611c65565b611426565b34801561033f57600080fd5b50610348611436565b604051610195919061205b565b34801561036157600080fd5b5061025a610370366004611f97565b6116cb565b34801561038157600080fd5b506102916118f8565b34801561039657600080fd5b5061025a6103a5366004611e6f565b611905565b3480156103b657600080fd5b5061025a6103c5366004611eb1565b611966565b3480156103d657600080fd5b5061025a6103e5366004611e6f565b611b17565b61025a611b24565b6000816003811061040257600080fd5b6005020180546001820180549193509061041b9061209c565b80601f01602080910402602001604051908101604052809291908181526020018280546104479061209c565b80156104945780601f1061046957610100808354040283529160200191610494565b820191906000526020600020905b81548152906001019060200180831161047757829003601f168201915b5050505050908060020180546104a99061209c565b80601f01602080910402602001604051908101604052809291908181526020018280546104d59061209c565b80156105225780601f106104f757610100808354040283529160200191610522565b820191906000526020600020905b81548152906001019060200180831161050557829003601f168201915b5050505050908060030180546105379061209c565b80601f01602080910402602001604051908101604052809291908181526020018280546105639061209c565b80156105b05780601f10610585576101008083540402835291602001916105b0565b820191906000526020600020905b81548152906001019060200180831161059357829003601f168201915b5050505050908060040180546105c59061209c565b80601f01602080910402602001604051908101604052809291908181526020018280546105f19061209c565b801561063e5780601f106106135761010080835404028352916020019161063e565b820191906000526020600020905b81548152906001019060200180831161062157829003601f168201915b5050505050905085565b601e816003811061040257600080fd5b610660611b60565b60408051606081019091526000600381835b828210156108ec578382600502016040518060a0016040529081600082015481526020016001820180546106a59061209c565b80601f01602080910402602001604051908101604052809291908181526020018280546106d19061209c565b801561071e5780601f106106f35761010080835404028352916020019161071e565b820191906000526020600020905b81548152906001019060200180831161070157829003601f168201915b505050505081526020016002820180546107379061209c565b80601f01602080910402602001604051908101604052809291908181526020018280546107639061209c565b80156107b05780601f10610785576101008083540402835291602001916107b0565b820191906000526020600020905b81548152906001019060200180831161079357829003601f168201915b505050505081526020016003820180546107c99061209c565b80601f01602080910402602001604051908101604052809291908181526020018280546107f59061209c565b80156108425780601f1061081757610100808354040283529160200191610842565b820191906000526020600020905b81548152906001019060200180831161082557829003601f168201915b5050505050815260200160048201805461085b9061209c565b80601f01602080910402602001604051908101604052809291908181526020018280546108879061209c565b80156108d45780601f106108a9576101008083540402835291602001916108d4565b820191906000526020600020905b8154815290600101906020018083116108b757829003601f168201915b50505050508152505081526020019060010190610672565b50505050905090565b6108fd611bb7565b6040805160608101909152601e60036000835b828210156108ec578382600502016040518060a0016040529081600082015481526020016001820180546109439061209c565b80601f016020809104026020016040519081016040528092919081815260200182805461096f9061209c565b80156109bc5780601f10610991576101008083540402835291602001916109bc565b820191906000526020600020905b81548152906001019060200180831161099f57829003601f168201915b505050505081526020016002820180546109d59061209c565b80601f0160208091040260200160405190810160405280929190818152602001828054610a019061209c565b8015610a4e5780601f10610a2357610100808354040283529160200191610a4e565b820191906000526020600020905b815481529060010190602001808311610a3157829003601f168201915b50505050508152602001600382018054610a679061209c565b80601f0160208091040260200160405190810160405280929190818152602001828054610a939061209c565b8015610ae05780601f10610ab557610100808354040283529160200191610ae0565b820191906000526020600020905b815481529060010190602001808311610ac357829003601f168201915b50505050508152602001600482018054610af99061209c565b80601f0160208091040260200160405190810160405280929190818152602001828054610b259061209c565b8015610b725780601f10610b4757610100808354040283529160200191610b72565b820191906000526020600020905b815481529060010190602001808311610b5557829003601f168201915b50505050508152505081526020019060010190610910565b6033546001600160a01b03163314610be35760405162461bcd60e51b81526020600482015260176024820152762cb7ba9030b932903737ba103a34329036b0b730b3b2b960491b60448201526064015b60405180910390fd5b602d610bf082848361213c565b505050565b6033546001600160a01b03163314610c495760405162461bcd60e51b81526020600482015260176024820152762cb7ba9030b932903737ba103a34329036b0b730b3b2b960491b6044820152606401610bda565b60038110610c995760405162461bcd60e51b815260206004820152601660248201527f496e76616c696420656475636174696f6e436f756e74000000000000000000006044820152606401610bda565b6040518060a001604052808281526020018a8a8080601f016020809104026020016040519081016040528093929190818152602001838380828437600092019190915250505090825250604080516020601f8b0181900481028201810190925289815291810191908a908a9081908401838280828437600092019190915250505090825250604080516020601f890181900481028201810190925287815291810191908890889081908401838280828437600092019190915250505090825250604080516020601f8701819004810282018101909252858152918101919086908690819084018382808284376000920191909152505050915250600f8260038110610da657610da66121fd565b60050201600082015181600001556020820151816001019081610dc99190612213565b5060408201516002820190610dde9082612213565b5060608201516003820190610df39082612213565b5060808201516004820190610e089082612213565b505050505050505050505050565b602f8054610e239061209c565b80601f0160208091040260200160405190810160405280929190818152602001828054610e4f9061209c565b8015610e9c5780601f10610e7157610100808354040283529160200191610e9c565b820191906000526020600020905b815481529060010190602001808311610e7f57829003601f168201915b505050505081565b6033546001600160a01b03163314610ef85760405162461bcd60e51b81526020600482015260176024820152762cb7ba9030b932903737ba103a34329036b0b730b3b2b960491b6044820152606401610bda565b600360325410610f4a5760405162461bcd60e51b815260206004820181905260248201527f4f6e6c79203320656475636174696f6e2064657461696c7320616c6c6f7765646044820152606401610bda565b6040518060a00160405280603254815260200189898080601f016020809104026020016040519081016040528093929190818152602001838380828437600092019190915250505090825250604080516020601f8a0181900481028201810190925288815291810191908990899081908401838280828437600092019190915250505090825250604080516020601f880181900481028201810190925286815291810191908790879081908401838280828437600092019190915250505090825250604080516020601f8601819004810282018101909252848152918101919085908590819084018382808284376000920191909152505050915250603254601e906003811061105c5761105c6121fd565b6005020160008201518160000155602082015181600101908161107f9190612213565b50604082015160028201906110949082612213565b50606082015160038201906110a99082612213565b50608082015160048201906110be9082612213565b505060328054915060006110d1836122d3565b91905055505050505050505050565b6003603054106111325760405162461bcd60e51b815260206004820152601760248201527f4f6e6c7920332070726f6a6563747320616c6c6f7765640000000000000000006044820152606401610bda565b6040518060a00160405280603054815260200189898080601f016020809104026020016040519081016040528093929190818152602001838380828437600092019190915250505090825250604080516020601f8a0181900481028201810190925288815291810191908990899081908401838280828437600092019190915250505090825250604080516020601f880181900481028201810190925286815291810191908790879081908401838280828437600092019190915250505090825250604080516020601f860181900481028201810190925284815291810191908590859081908401838280828437600092018290525093909452505060305490915060038110611244576112446121fd565b600502016000820151816000015560208201518160010190816112679190612213565b506040820151600282019061127c9082612213565b50606082015160038201906112919082612213565b50608082015160048201906112a69082612213565b505060308054915060006110d1836122d3565b600381106113095760405162461bcd60e51b815260206004820152601760248201527f4f6e6c7920332070726f6a6563747320616c6c6f7765640000000000000000006044820152606401610bda565b6040518060a001604052808281526020018a8a8080601f016020809104026020016040519081016040528093929190818152602001838380828437600092019190915250505090825250604080516020601f8b0181900481028201810190925289815291810191908a908a9081908401838280828437600092019190915250505090825250604080516020601f890181900481028201810190925287815291810191908890889081908401838280828437600092019190915250505090825250604080516020601f870181900481028201810190925285815291810191908690869081908401838280828437600092018290525093909452505060305490915060038110610da657610da66121fd565b602e8054610e239061209c565b600f816003811061040257600080fd5b61143e611c0e565b6040805160608101909152600f60036000835b828210156108ec578382600502016040518060a0016040529081600082015481526020016001820180546114849061209c565b80601f01602080910402602001604051908101604052809291908181526020018280546114b09061209c565b80156114fd5780601f106114d2576101008083540402835291602001916114fd565b820191906000526020600020905b8154815290600101906020018083116114e057829003601f168201915b505050505081526020016002820180546115169061209c565b80601f01602080910402602001604051908101604052809291908181526020018280546115429061209c565b801561158f5780601f106115645761010080835404028352916020019161158f565b820191906000526020600020905b81548152906001019060200180831161157257829003601f168201915b505050505081526020016003820180546115a89061209c565b80601f01602080910402602001604051908101604052809291908181526020018280546115d49061209c565b80156116215780601f106115f657610100808354040283529160200191611621565b820191906000526020600020905b81548152906001019060200180831161160457829003601f168201915b5050505050815260200160048201805461163a9061209c565b80601f01602080910402602001604051908101604052809291908181526020018280546116669061209c565b80156116b35780601f10611688576101008083540402835291602001916116b3565b820191906000526020600020905b81548152906001019060200180831161169657829003601f168201915b50505050508152505081526020019060010190611451565b6033546001600160a01b0316331461171f5760405162461bcd60e51b81526020600482015260176024820152762cb7ba9030b932903737ba103a34329036b0b730b3b2b960491b6044820152606401610bda565b6003603154106117715760405162461bcd60e51b815260206004820181905260248201527f4f6e6c79203320656475636174696f6e2064657461696c7320616c6c6f7765646044820152606401610bda565b6040518060a00160405280603154815260200189898080601f016020809104026020016040519081016040528093929190818152602001838380828437600092019190915250505090825250604080516020601f8a0181900481028201810190925288815291810191908990899081908401838280828437600092019190915250505090825250604080516020601f880181900481028201810190925286815291810191908790879081908401838280828437600092019190915250505090825250604080516020601f8601819004810282018101909252848152918101919085908590819084018382808284376000920191909152505050915250603154600f9060038110611883576118836121fd565b600502016000820151816000015560208201518160010190816118a69190612213565b50604082015160028201906118bb9082612213565b50606082015160038201906118d09082612213565b50608082015160048201906118e59082612213565b505060318054915060006110d1836122d3565b602d8054610e239061209c565b6033546001600160a01b031633146119595760405162461bcd60e51b81526020600482015260176024820152762cb7ba9030b932903737ba103a34329036b0b730b3b2b960491b6044820152606401610bda565b602f610bf082848361213c565b6033546001600160a01b031633146119ba5760405162461bcd60e51b81526020600482015260176024820152762cb7ba9030b932903737ba103a34329036b0b730b3b2b960491b6044820152606401610bda565b60038110611a0a5760405162461bcd60e51b815260206004820152601760248201527f496e76616c696420657870657269656e6365436f756e740000000000000000006044820152606401610bda565b6040518060a001604052808281526020018a8a8080601f016020809104026020016040519081016040528093929190818152602001838380828437600092019190915250505090825250604080516020601f8b0181900481028201810190925289815291810191908a908a9081908401838280828437600092019190915250505090825250604080516020601f890181900481028201810190925287815291810191908890889081908401838280828437600092019190915250505090825250604080516020601f8701819004810282018101909252858152918101919086908690819084018382808284376000920191909152505050915250601e8260038110610da657610da66121fd565b602e610bf082848361213c565b6033546040516001600160a01b03909116903480156108fc02916000818181858888f19350505050158015611b5d573d6000803e3d6000fd5b50565b60405180606001604052806003905b611ba16040518060a0016040528060008152602001606081526020016060815260200160608152602001606081525090565b815260200190600190039081611b6f5790505090565b60405180606001604052806003905b611bf86040518060a0016040528060008152602001606081526020016060815260200160608152602001606081525090565b815260200190600190039081611bc65790505090565b60405180606001604052806003905b611c4f6040518060a0016040528060008152602001606081526020016060815260200160608152602001606081525090565b815260200190600190039081611c1d5790505090565b600060208284031215611c7757600080fd5b5035919050565b6000815180845260005b81811015611ca457602081850181015186830182015201611c88565b506000602082860101526020601f19601f83011685010191505092915050565b85815260a060208201526000611cdd60a0830187611c7e565b8281036040840152611cef8187611c7e565b90508281036060840152611d038186611c7e565b90508281036080840152611d178185611c7e565b98975050505050505050565b805182526000602082015160a06020850152611d4260a0850182611c7e565b905060408301518482036040860152611d5b8282611c7e565b91505060608301518482036060860152611d758282611c7e565b91505060808301518482036080860152611d8f8282611c7e565b95945050505050565b60208082526000906080830183820185845b6003811015611dd957601f19878503018352611dc7848351611d23565b93509184019190840190600101611daa565b50919695505050505050565b60208082526000906080830183820185845b6003811015611dd957601f19878503018352611e14848351611d23565b93509184019190840190600101611df7565b60008083601f840112611e3857600080fd5b50813567ffffffffffffffff811115611e5057600080fd5b602083019150836020828501011115611e6857600080fd5b9250929050565b60008060208385031215611e8257600080fd5b823567ffffffffffffffff811115611e9957600080fd5b611ea585828601611e26565b90969095509350505050565b600080600080600080600080600060a08a8c031215611ecf57600080fd5b893567ffffffffffffffff80821115611ee757600080fd5b611ef38d838e01611e26565b909b50995060208c0135915080821115611f0c57600080fd5b611f188d838e01611e26565b909950975060408c0135915080821115611f3157600080fd5b611f3d8d838e01611e26565b909750955060608c0135915080821115611f5657600080fd5b50611f638c828d01611e26565b9a9d999c50979a9699959894979660800135949350505050565b602081526000611f906020830184611c7e565b9392505050565b6000806000806000806000806080898b031215611fb357600080fd5b883567ffffffffffffffff80821115611fcb57600080fd5b611fd78c838d01611e26565b909a50985060208b0135915080821115611ff057600080fd5b611ffc8c838d01611e26565b909850965060408b013591508082111561201557600080fd5b6120218c838d01611e26565b909650945060608b013591508082111561203a57600080fd5b506120478b828c01611e26565b999c989b5096995094979396929594505050565b60208082526000906080830183820185845b6003811015611dd957601f1987850301835261208a848351611d23565b9350918401919084019060010161206d565b600181811c908216806120b057607f821691505b6020821081036120d057634e487b7160e01b600052602260045260246000fd5b50919050565b634e487b7160e01b600052604160045260246000fd5b601f821115610bf0576000816000526020600020601f850160051c810160208610156121155750805b601f850160051c820191505b8181101561213457828155600101612121565b505050505050565b67ffffffffffffffff831115612154576121546120d6565b61216883612162835461209c565b836120ec565b6000601f84116001811461219c57600085156121845750838201355b600019600387901b1c1916600186901b1783556121f6565b600083815260209020601f19861690835b828110156121cd57868501358255602094850194600190920191016121ad565b50868210156121ea5760001960f88860031b161c19848701351681555b505060018560011b0183555b5050505050565b634e487b7160e01b600052603260045260246000fd5b815167ffffffffffffffff81111561222d5761222d6120d6565b6122418161223b845461209c565b846120ec565b602080601f831160018114612276576000841561225e5750858301515b600019600386901b1c1916600185901b178555612134565b600085815260208120601f198616915b828110156122a557888601518255948401946001909101908401612286565b50858210156122c35787850151600019600388901b60f8161c191681555b5050505050600190811b01905550565b6000600182016122f357634e487b7160e01b600052601160045260246000fd5b506001019056fea26469706673582212209bc3ae3ac1599fc9136abf7f838d4839f7cd6f6cf620a12993a8abf14cbb76ac64736f6c634300081800336f7665722036206d6f6e746873206f662070726163746963616c20657870657269656e63652077697468206120676f6f64206b6e6f776c6564676520696e20626c6f636b636861696e20646576656c6f706d656e742e692068656c70207765623320636f6d6d756e69747920627920636f6e747269627574696e6720696e2074686520776562332073706163652e",
  "linkReferences": {},
  "deployedLinkReferences": {}
}